:0400000080311F2804
:100008007E1480310B1E09280A2812288B1C0D2803
:100018000E28122884319E2480311D288B1E152815
:1000280016281D280B1D19281A281D2884318324F9
:1000380080317E100900803121288431A724803145
:10004800A6008431A8248031A700FA01FB01FC0135
:10005800A401A5017E1020008331CB2B003401348C
:1000680002340334043405340634073408340934BC
:100078000A340B340C340D340E340F34103411346C
:10008800123413341434153416341734183419341C
:100098001A341B341C341D341E341F3420342134CC
:1000A800223423342434253426342734283429347C
:1000B8002A342B342C342D342E342F34303431342C
:1000C80032343334343435343634373438343934DC
:1000D8003A343B343C343D343E343F34403441348C
:1000E800423443344434453446344734483449343C
:1000F8004A344B344C344D344E344F3450345134EC
:10010800523453345434553456345734583459349B
:100118005A345B345C345D345E345F34603461344B
:1001280062346334643465346634673468346934FB
:100138006A346B346C346D346E346F3470347134AB
:10014800723473347434753476347734783479345B
:100158007A347B347C347D347E347F34803481340B
:1001680082348334843485348634873488348934BB
:100178008A348B348C348D348E348F34903491346B
:10018800923493349434953496349734983499341B
:100198009A349B349C349D349E349F34A034A134CB
:1001A800A234A334A434A534A634A734A834A9347B
:1001B800AA34AB34AC34AD34AE34AF34B034B1342B
:1001C800B234B334B434B534B634B734B834B934DB
:1001D800BA34BB34BC34BD34BE34BF34C034C1348B
:1001E800C234C334C434C534C634C734C834C9343B
:1001F800CA34CB34CC34CD34CE34CF34D034D134EB
:10020800D234D334D434D534D634D734D834D9349A
:10021800DA34DB34DC34DD34DE34DF34E034E1344A
:10022800E234E334E434E534E634E734E834E934FA
:10023800EA34EB34EC34ED34EE34EF34F034F134AA
:10024800F234F334F434F534F634F734F834F9345A
:10025800FA34FB34FC34FD34FE34FF34003401340A
:1002680002340334043405340634073408340934BA
:100278000A340B340C340D340E340F34103411346A
:10028800123413341434153416341734183419341A
:100298001A341B341C341D341E341F3420342134CA
:1002A800223423342434253426342734283429347A
:1002B8002A342B342C342D342E342F34303431342A
:1002C80032343334343435343634373438343934DA
:1002D8003A343B343C343D343E343F34403441348A
:1002E800423443344434453446344734483449343A
:1002F8004A344B344C344D344E344F3450345134EA
:100308005234533454345534563457345834593499
:100318005A345B345C345D345E345F346034613449
:1003280062346334643465346634673468346934F9
:100338006A346B346C346D346E346F3470347134A9
:100348007234733474347534763477347834793459
:100358007A347B347C347D347E347F348034813409
:1003680082348334843485348634873488348934B9
:100378008A348B348C348D348E348F349034913469
:100388009234933494349534963497349834993419
:100398009A349B349C349D349E349F34A034A134C9
:1003A800A234A334A434A534A634A734A834A93479
:1003B800AA34AB34AC34AD34AE34AF34B034B13429
:1003C800B234B334B434B534B634B734B834B934D9
:1003D800BA34BB34BC34BD34BE34BF34C034C13489
:1003E800C234C334C434C534C634C734C834C93439
:1003F800CA34CB34CC34CD34CE34CF34D034D134E9
:10040800D234D334D434D534D634D734D834D93498
:10041800DA34DB34DC34DD34DE34DF34E034E13448
:10042800E234E334E434E534E634E734E834E934F8
:10043800EA34EB34EC34ED34EE34EF34F034F134A8
:10044800F234F334F434F534F634F734F834F93458
:10045800FA34FB34FC34FD34FE34FF340034013408
:1004680002340334043405340634073408340934B8
:100478000A340B340C340D340E340F341034113468
:100488001234133414341534163417341834193418
:100498001A341B341C341D341E341F3420342134C8
:1004A8002234233424342534263427342834293478
:1004B8002A342B342C342D342E342F343034313428
:1004C80032343334343435343634373438343934D8
:1004D8003A343B343C343D343E343F344034413488
:1004E8004234433444344534463447344834493438
:1004F8004A344B344C344D344E344F3450345134E8
:100508005234533454345534563457345834593497
:100518005A345B345C345D345E345F346034613447
:1005280062346334643465346634673468346934F7
:100538006A346B346C346D346E346F3470347134A7
:100548007234733474347534763477347834793457
:100558007A347B347C347D347E347F348034813407
:1005680082348334843485348634873488348934B7
:100578008A348B348C348D348E348F349034913467
:100588009234933494349534963497349834993417
:100598009A349B349C349D349E349F34A034A134C7
:1005A800A234A334A434A534A634A734A834A93477
:1005B800AA34AB34AC34AD34AE34AF34B034B13427
:1005C800B234B334B434B534B634B734B834B934D7
:1005D800BA34BB34BC34BD34BE34BF34C034C13487
:1005E800C234C334C434C534C634C734C834C93437
:1005F800CA34CB34CC34CD34CE34CF34D034D134E7
:10060800D234D334D434D534D634D734D834D93496
:10061800DA34DB34DC34DD34DE34DF34E034E13446
:10062800E234E334E434E534E634E734E834E934F6
:10063800EA34EB34EC34ED34EE34EF34F034F134A6
:10064800F234F334F434F534F634F734F834F93456
:10065800FA34FB34FC34FD34FE34FF34F100F11B72
:10066800362B392B20008C143B2B20008C10711B4F
:100678003E2B412B20000C14432B20000C10F11AA8
:10068800462B492B20008C174B2B20008C13711AFA
:100698004E2B512B20000C17532B20000C13F11953
:1006A800562B592B20008D175B2B20008D137119A9
:1006B8005E2B612B20000D17632B20000D13F11802
:1006C800662B692B20008D166B2B20008D1271185C
:1006D8006E2B712B20000D16732B20000D120800B5
:1006E800F8017A08F90091307906031D7C2B7D2BDF
:1006F800802B0130FB00AA2B51307906031D852B76
:10070800862B892B0230FB00AA2B1F307906031D8C
:100718008E2B8F2B912BFB01AA2B7B08F100F2016A
:100728007108F200F1013230F4008030F5007108F0
:100738007407F6007208753DF7007908760784009B
:1007480077080318013E85000008F80078080800BB
:1007580020002508803AF00080307002031DB62B77
:10076800093024020318B92BBA2BC52B7A35FA00A5
:1007780020008D1CC02BC12BC32B7A14C52BFE3037
:10078800FA0501302000A4070030A53D0800843197
:100798003A2483318B170B172630F1000430F2000E
:1007A8008431922483317A30F1000430F2008431AC
:1007B800982483318431702483318331E723833152
:1007C800E12B80311F28200026082704031DED2B6C
:1007D800EE2BFC2BFF30A600FF30A70083317423DB
:1007E8008331833132238331FA012000A401A5012A
:1007F800080022008C018D01203021008C0003307C
:100808008D0023008D018C01213024008D008C0186
:100818002100951322009D019E0108002100150862
:10082800C03912389500F43020009500F430FC00EF
:100838000B118B16A930F1000430F2008431922498
:100848008431080020002708803AF00080307002C8
:10085800031D302C01302602031C332C342C392C78
:10086800FF302000A607FF30A73D08008331FD2395
:10087800843184318B2484318431A32484318431BC
:100888006424843184311224843108002000220831
:1008980023040319502C512C562C23088A002208B3
:1008A8000A008431080020002008210403195D2C67
:1008B8005E2C632C21088A0020080A008431080075
:1008C8008B1021001513AA30F1000430F200843196
:1008D800982484310B160800FA012000A401A50110
:1008E800FB01FF308331322384310800643020005B
:1008F800A6000030A7008331AC23843108000B1117
:100908007C082000950084314A24843108006A302C
:100918002100990098012200960108007208200021
:10092800A3007108A200080072082000A100710845
:10093800A00008008B108431572484310800163039
:0E094800210097000800FF34FF34080008006B
:020000040001F9
:04000E00E43FFF1EAE
:00000001FF
